:0E21A10085828DAA89742F5AF5F0742045F0BE
:0B21AF00F589438840759850C2AC22AF
:0E21BA00AA82AB83C374809A74259B50314374
:0E21C80087808A048B057E007F00C004C0055E
:0E21D600C006C00790E100E4F5F012298AACC3
:0E21E40082E58124FCF581C3E49CFC8C8D8C8B
:0621F200821222C1802DC3
:0E21F80053877F7C007D00C002C003C004C07E
:0E22060005907080E4F5F012298AAA82AB835D
:0E221400ACF0FDE58124FCF581C3E49AFA8A62
:032222008D8A8D15
:0E222500AA89742F5AF5F0742045F0F589D27D
:072233008E759850C2AC2229
:07223A00A298E433F58222B3
:05224100858299C2999D
:042246003099FD22AC
:05224A0010980280FB6A
:04224F0085998222C9
:06225300AA82AB83ACF08F
:0E2259008A828B838CF0122A61FD60180ABA0B
:0322670000010B68
:0E226A008D82C002C003C004122241D004D0F5
:0522780003D00280DC30
:01227D00223E
:03218400750800DB
:0A227E00C013858113E582FA24F8ED
:04228800500280324E
:0A228C00AB088AF005F0740180022F
:0222960025E041
:0C229800D5F0FBFAA813181818E6600532
:0522A400EA4203800581
:0522A900EAF4FA520303
:0E22AE00C003C0039000071222D41581D00394
:0222BC008B088D
:0322BE00D0132218
:0E22C100AA82C002C0029000071222D415812A
:0522CF00D0028A082284
:0A22D400C013858113AC84758408E3
:0A22DE00A813181818E6F08C84D03D
:0222E8001322BF
:0C22EA00AC84758408E0FA8C848A82229F
:0421000002212B325B
:01210B0032A1
:012113003299
:01211B003291
:032123000222F69F
:07218700750900750A0075DF
:06218E000B00750C00754A
:052194000D00750E00B6
:03219E00022126F5
:0521260012236480FE9D
:0C22F600C0D075D000A299A298D0D032C0
:0E230200AA82AB83C3EA94A0EB64809480406F
:0E2310001974AF9A74808BF063F08095F040E2
:0C231E000BEA24E0F582EB34FFF583228B
:0E232A00C3EA94E0EB64809480401974EF9A4B
:0E23380074808BF063F08095F0400BEA24B0C7
:08234600F582EB34FFF5832260
:0E234E00BAF10EBB000BEA24FFF582EB34FF60
:03235C00F58322E4
:05235F008A828B83223D
:0D2364007582E81221A1902A8175F0801287
:092371002253902AA875F0801295
:09237A002253902AD075F0801264
:09238300225390000975F040128C
:0D238C0026887461C0E090000975F04012D1
:0E239900248A15817462C0E090000975F0403E
:0E23A70012248A15817463C0E090000975F05D
:0E23B5004012248A15817464C0E090000975FE
:0E23C300F04012248A15817465C0E090000974
:0E23D10075F04012248A1581902AD075F08094
:0A23DF0012225390000975F040121D
:0923E900268890000975F04012ED
:0923F20025D4902AD075F0801268
:0923FB00225390000975F0401214
:02240400268828
:0E24060012223AE58260F912224AAA82BA41F5
:0124140000C7
:072415004005EA2450500AC3
:03241C00BAE00023
:07241F004016EA240E4011F3
:0E2426008A037C008B828C83122302AB82AC73
:03243400838B0295
:03243700BA610087
:07243A004005EA2485500A69
:03244100BA41009D
:07244400401CEA24A540172B
:0E244B008A82C0021229E0E582D00260067487
:05245900204AFB800297
:02245E008A03EF
:022460008B02ED
:0E2462008A82C002122241D002EA14F582C022
:0E24700002122241D002EA24FEF5821222411D
:0A247E00902AD975F0801222530253
:02248800240628
:0E2A810092A5E1E220A4E0A0A9A2A5E0A02079
:0E2A8F0053494F20A4ABEF20E1E2A5ADA4A077
:0B2A9D002053444B2D312E310D0A0058
:0E2AA8008DA0A6A8ACA0A9E2A520AAADAEAF55
:0E2AB600AAA820A4ABEF20E2A5E1E2A8E0AEC2
:0C2AC400A2A0ADA8EF2E2E2E200D0A00BF
:092AD0000D0A4649464F3A200068
:032AD9000D0A00E3
:0A248A00C013858113C082C083C017
:0E249400F005810581058190000412284EADEF
:0C24A20082AE83E5132404F8A60508A60A
:0C24AE0006087600E5132404F886820876
:0C24BA0086830886F0A913191919E7128F
:0C24C60027DAE5132404F8740126FAE478
:0E24D2000836FB0886048A828B838CF0E412A5
:0A24E00027DAA3E41227DAA3E412BE
:0C24EA0027DAA81308868208868308867B
:0C24F600F0122A61FAA3122A61FBA31263
:0E2502002A61FCBA0008BB0005BC0002806A1A
:0C251000A81308740326FAE40836FB0840
:0E251C0086048A828B838CF0122A61FDA31242
:0E252A002A61FEA3122A61FFBD0008BE000553
:05253800BF0002803D20
:05253D000DBD00010EC0
:0C2542008D828E838FF0E5132404F8E6F0
:0D254E001227DAA308E61227DAA308E61226
:0C255B0027DA8A828B838CF0E5132404BD
:0E256700F8E61227DAA308E61227DAA308E640
:052575001227DA804985
:0C257A00A81308740326FAE40836FB08D6
:0C25860086048A828B838CF0E513240409
:0E259200F8E61227DAA308E61227DAA308E615
:0C25A0001227DAA8130886820886830838
:0C25AC0086F0E5132404F9E71227DAA3F7
:0B25B80009E71227DAA309E71227DA6F
:0C25C300A8130886820886830886F0852D
:0525CF001381D013226E
:0A25D400C013858113C082C083C0CC
:0C25DE00F0E5812407F581E5132407F8DF
:0C25EA007600A813088682088683088605
:0C25F600F0122A61FAA3122A61FBA31262
:0C2602002A61FCEA4B4C6071E5132404D3
:0C260E00F8A60208A60308A604E51324A1
:0E261A0004F886030886040886028B828C83EF
:0C2628008AF0122A61FEE5132407F8A6D0
:0C26340006E5132404F8740126FEE408F7
:0E26400036FF0886058E828F838DF0122A6188
:0C264E00FEA3122A61FFA3122A61FDA85E
:0C265A00130886820886830886F0EE12C2
:0A26660027DAA3EF1227DAA3ED1222
:0B26700027DA8B828C838AF0122791FE
:0A267B00E5132407F8868285138119
:03268500D013224D
:0A268800C013E581F513240AF58163
:0C269200AA82AB83ACF0A813087600E825
:0E269E0004F97700740228F97700740328F914
:0E26AC007700740428F97700740528F9770088
:0E26BA00740628F97700740728F97700740871
:0E26C80028F97700740928F876008A828B833F
:0D26D6008CF0122A61FAA3122A61FBA312F4
:0326E3002A61FC6D
:0E26E600EA4B4C60458A828B838CF0122A618D
:0E26F400F582C002C003C0041222417582208C
:0E270200122241D004D003D00274012AFDE45B
:0E2710003BFE8C078D828E838FF0122A61FDB6
:0E271E00A3122A61FEA3122A61FF8D028E0310
:04272C008F0480B6E0
:06273000851381D0132285
:0B273600122A61FAA3122A61FBA31211
:0E2741002A61FCE4BA0007BB0004BC000104DE
:03274F00F58222EE
:0C275200AA82AB83EA4B700490000022C6
:0B275E00EA24FCFAEB34FFFBAC11ADE9
:0527690012E4F50FF57C
:01276E00105A
:0E276F00EC4D6019EAB50406EBB50502800FCB
:0A277D008C0F8D108C828D83E0FC20
:05278700A3E0FD80E36A
:05278C008C828D832208
:0B279100AA82AB83ACF0D310AF01C3F1
:0E279C00C0D08A828B83122752AA82AB83EAB6
:0A27AA004B6028E50F4510700C8A03
:0B27B400828B83A3A3E4F0A3F0801647
:0A27BF00AC0FAD108A828B83E0FAA4
:0C27C900A3E0FB8C828D83EAF0A3EBF010
:0527D500D0D092AF22FC
:06215A00E478FFF6D8FD59
:082138007900E94400601B7A04
:0521400000902ADE788A
:032145000075A082
:0A21480064E493F2A308B800020556
:08215200A0D9F4DAF275A0FF38
:0E27DA0020F71030F6118883A88220F507F64C
:0527E800A883758300C9
:0127ED0022C9
:0327EE00F280F77F
:0227F100F022D4
:05219900E4F511F51250
:0527F3007A007B6090FC
:0E27F8002ADCE493FC740193FDEA4B700A0A9C
:04280600BA00010B08
:05280A001CBCFF011DD4
:05280F008A118B12AEDE
:0A28140011AF12EC2AFAED3BFBEACB
:0E281E0024FEFAEB34FFFB8E828F83EAF0A3D8
:0A282C00EBF0851182851283E0FABB
:0C283600A3E0FB8A828B83E4F0A3F08512
:0A2842001182851283A3A3E4F0A322
:02284C00F02278
:0A284E00C013858113C082C083050A
:0C285800810581A81308C374FB9674FF6F
:0A2864000896500690000002298437
:0C286E00A81308740426F6E40836F6E50A
:06287A001145127003126B
:0228800027F33C
:09288200A813080808A61108A615
:06288B0012D310AF01C3DF
:02289100C0D0B5
:0C289300A8130808088682088683E0FE6F
:0C289F00A3E0FF8E028F03A813080808B6
:0D28AB008604088605EAC39CFAEB9DFBA895
:0C28B800130808088682088683A3A3E0AA
:0C28C400FCA3E0FDEAC39CFAEB9DFBA81E
:0B28D0001308C3EA96EB0896400FA81F
:0C28DB0013080808740426FAE40836FB11
:0228E700801E51
:0B28E900A813080808A60608A607A808
:0C28F400130808088682088683E0FCA315
:07290000E0FD4C708EFAFBB4
:0C290700EA4B6071A8130808087402264F
:0E291300FCE40836FD8C828D83E0FEA3E0FF1D
:0C2921004E700F8C828D83A81308E6F026
:06292D00A308E6F080495A
:0C293300A813080808EE26FEEF0836FF87
:0C293F00A8130808088682088683E0FCC4
:0D294B00A3E0FD8E828F83ECF0A3EDF0A8D9
:0C295800130808088682088683EEF0A3AE
:0C296400EFF08E828F83A3A3A81308E677
:0C297000F0A308E6F074042EFAE43FFB2C
:08297C00D0D092AF8A828B8358
:06298400851381D013222F
:022ADC000004F4
:082160007800E84400600A79F0
:032168000075A05F
:06216B0060E4F309D8FC5A
:082171007800E84404600C79D9
:0B21790004906000E4F0A3D8FCD9FA49
:0E298A00FBC2D530E715D2D5E4C39582F582A5
:0D299800E49583F583E495F0F5F0E49BFBF6
:0E29A500E58124FEF8E630E715B2D5181818C3
:0E29B300E4C396F6E40896F6E40896F6E40807
:0229C10096F688
:0E29C3001818181229FA30D513FBE4C39582B8
:0E29D100F582E49583F583E495F0F5F0E49B40
:0129DF0022D5
:0529E000AA82BA4100CB
:0B29E5004009EA24A54004758201228D
:0429F00075820022CA
:0629F400FBE58124FBF865
:0A29FA00E6F9087A20E4FCFDFEFF78
:0E2A0400E5822582F582E58333F583E5F03324
:0B2A1200F5F0EB33FB4017DAE98042DF
:0E2A1D00E5822582F582E58333F583E5F0330B
:052A2B00F5F0EB33FBA8
:0E2A3000EC33FCED33FDEE33FEEF33FFEC999B
:0E2A3E00ED96EE0896EF089618184013EC99E6
:0E2A4C00FCED96FDEE0896FEEF0896FF1818BA
:032A5A00438201B3
:022A5D00DABEDF
:022A5F00EB2268
:03212B00758113A8
:0A212E00122A7DE5826003022126DB
:0E2A610020F71430F6148883A88220F507E6CB
:062A6F00A883758300221C
:032A7500E280F705
:032A7800E49322C2
:022A7B00E02257
:042A7D00758200223C
:00000001FF
